:020000000F28C7
:10000800FE00030EF0000408F1000A08F200831253
:100018007F08F3003D291028F801F9017921FA0039
:04002800830108291F
:10020000FF0001308A007F088207052974294D29E3
:10021000073083129900F03083169F0583121F1058
:1002200083160F128F120F1330308312850083163E
:100230008501811305158515151501138B100B16F6
:100240008B178312181063007A0800212329FF30CE
:10025000F4007408F5007508031908000310F50D83
:100260008312051937290130F4007408F507193095
:10027000F400F40B392900002B298B1C42298B1028
:10028000F801F80A7308FF0072088A0071088400F8
:10029000700E8300FE0E7E0E09007808031D58299B
:1002A0000130F7007708F90708307902031C0800CD
:1002B000672108000230F4007408FA0083129814D1
:1002C0001815981118161814F901F801080083126E
:1002D000181030308500780803196F292721013064
:1002E000F6007608FA0008008312850127215A21BA
:0402F00008000134CD
:02400E00D4F0EC
:00000001FF
